:100000000C942A000C9400000C9400000C94000046
:100010000C9400000C9400000C9400000C94000060
:100020000C9400000C9400000C9400000C94000050
:100030000C9400000C9400000C9400000C94000040
:100040000C9400000C9400000C9400000C94000030
:100050000C940000F894EE27ECBBF1E0FBBFEBBF83
:10006000E5BF8DE0A2E0BB27ED938A95E9F780E03C
:1000700094E0A0E6ED930197E9F7EFE5EDBFE4E04A
:10008000EEBFC0E6D1E00C9445002497EFEBE88387
:10009000EFE3E983E7E0EA83EDE7EB83EFEFEABB29
:1000A000E0E0E1BBE1E0E2BBEFEFE7BBE0E0E8BBB3
:1000B0001CD0809918C019D0EEEFEBBBE88119D0A5
:1000C000EDEFEBBBE98115D0EBEFEBBBEA8111D093
:1000D000E7EFEBBBEB810DD0809904C006D0E0E0E8
:1000E000E8BB01C0E9CFE4CFFFCFA8ECB0E00C94AF
:1000F0007E00E8BBAAE0B0E00C947E00109639F0D8
:100100008AEF90E00197F1F7A8951197C9F7089544
:00000001FF
