:060000000C9449000C9471
:1000060000000C9400000C9400000C9400000C946A
:1000160000000C9400000C9400000C9400000C945A
:1000260000000C9400000C9400000C9400000C944A
:1000360000000C9400000C9400000C9400000C943A
:1000460000000C9400000C9400000C940000393859
:1000560037363534333231004D6F68616D6D61640A
:1000660072657A610048656E6469616E6900393649
:1000760030313232363830303736000080C0090031
:10008600600154000200690182000000F894EE2726
:10009600ECBBF1E0FBBFEBBFE5BF8DE0A2E0BB2709
:1000A600ED938A95E9F780E094E0A0E6ED93019759
:1000B600E9F7E4E8F0E085919591009761F0A59164
:1000C600B59105901590BF01F00105900D9201972D
:1000D600E1F7FB01F0CFEFE5EDBFE4E0EEBFC0E6F0
:1000E600D1E00C947600A0E10E946C0104E010E0DF
:1000F6000D30E0E01E0784F40A93A0E00E940B0195
:10010600F8013497E05AFE4FA0810E942E010E940A
:1001160099010F5F1F4FECCF0E941B010E949D01AA
:1001260024E030E03323CAF02A93A0E00E940B01BA
:10013600AEE5B0E00E944801E22FEE5FEA93A1E04F
:100146000E940B01ABE6B0E00E9448010E949901B3
:100156000E941B0121503040E5CF0E949D0120E006
:1001660030E02530E0E03E077CF42A93A0E00E94D0
:100176000B01A4E7B0E00E9448010E9499010E9489
:100186001B012F5F3F4FEDCF0E949D01AFCFFFCFE9
:10019600FFE0FA95F1F70895AAB3AF70AABBD99A12
:1001A600D898F6DFDA9AF4DFA9B3DA98F1DFDA9AAB
:1001B600EFDFDA98A7FDF5CF0895A07FAB2BABBB99
:1001C600DA9A0E94CB00DA980E94CB000895AA938F
:1001D600D998AAB3A76FAABBBBB3BF70A881EDDF3E
:1001E600A881A295EADFD99A0C949701DA9A0E941F
:1001F600CB00E9B3DA980E94CB00E07F08950E9415
:10020600CB00F4DFAE2FF2DFD998E295EA2B089502
:10021600AA930E94CF00E881F0E0E759FE4FE08103
:10022600A981AE0F0E94EA0059804880229608955F
:100236000E94CF00A2E00E94EA000E94CF00ACE03C
:100246000E94EA000E94CF00A1E00E94EA00E0E0DE
:100256004E2E5E2E0895AA93EF93FF93A88168947D
:10026600AA3019F0E894571430F04394E0E0EA938A
:10027600A42DCEDF36F053948FDFD89AA8810E9442
:10028600EA00FF91EF910C949701BA93AA931A93FF
:10029600E981FA813196E983FA833197E4911E2F39
:1002A600E03019F0A12FD7DFF3CF188123960895F8
:1002B600AA27BB271197F1F70895AA93D998AAB34D
:1002C600A76FAABBBBB3BF70A8810E94E000D99AF2
:1002D6002BC0AA93DA98D8987880E881E058E09302
:1002E6006B01E881E054E0936C0128D027D026D03A
:1002F600DFDFA0E2E2DFDCDFA8E224D0A4E022D048
:10030600A5E820D0AAB3AF70AABBD99A0E94020171
:10031600E53011F0E0E008C00E94CF00A6E00E94A0
:10032600EA000E941B01E1E021960895A6E9B0E0EB
:100336000C94A901A8ECB0E00C94A9010E945B0101
:10034600A0E3BBCF0E94EA000C945B01109639F043
:100356008AEF90E00197F1F7A8951197C9F70895EC
:00000001FF
