:040000000C94450017
:100004000C9400000C9400000C9400000C9400006C
:100014000C9400000C9400000C9400000C9400005C
:100024000C9400000C9400000C9400000C9400004C
:100034000C9400000C9400000C9400000C9400003C
:100044000C9400000C9400000C9400000C9400002C
:100054001027E80364000A000100001000011000EA
:10006400010074656D703A253032752000253032F8
:10007400643A253032643A253032640080C002008C
:10008400610180000000F894EE27ECBBF1E0FBBFB7
:10009400EBBFE5BF8DE0A2E0BB27ED938A95E9F7BE
:1000A40080E094E0A0E6ED930197E9F7E2E8F0E060
:1000B40085919591009761F0A591B5910590159062
:1000C400BF01F00105900D920197E1F7FB01F0CF1C
:1000D400EFE5EDBFE4E0EEBFC0E6D1E00C947A00BA
:1000E400E0ECE6B9349BFECF349AE4B1F5B108955F
:1000F4002B97E1E0E987E0E0EA8707E110E02BE3F2
:1001040030E04DE250E0EABBE0ECE7B9369AA0E11A
:100114000E948C014F5F5F4FECE3F0E0E417F507BA
:1001240021F42F5F3F4F40E050E0ECE3F0E0E217B2
:10013400F30721F40F5F1F4F20E030E0E8E1F0E027
:10014400E017F10739F400E010E0E985FA8531960B
:10015400E987FA87A985BA85189721F4E1E0F0E0E8
:10016400E987FA87BDDFDF01E4E0F0E00E94E40301
:100174002F01E0E6F1E0FA93EA93E6E6F0E0FA9381
:10018400EA93F2010E94800384E00E9433032896DC
:10019400A0E6B1E00E946A01FE01FA93EA93E1E766
:1001A400F0E0FA93EA93F8010E948003F9010E94B7
:1001B4008003FA010E9480038CE00E94330360965E
:1001C400DE010E946A01A8EEB3E00E94BA030E9415
:1001D4003D01A0CFFFCFFFE0FA95F1F70895A7B353
:1001E400AF70A7BBC19AC098F6DFC29AF4DFA6B37A
:1001F400C298F1DFC29AEFDFC298A7FDF5CF089548
:10020400A07FAB2BA8BBC29A0E94ED00C2980E94AB
:10021400ED000895AA93C198A7B3A76FA7BBB8B37D
:10022400BF70A881EDDFA881A295EADFC19A0C9482
:10023400BD01C29A0E94ED00E6B3C2980E94ED008F
:10024400E07F08950E94ED00F4DFAE2FF2DFC19845
:10025400E295EA2B0895AA930E94F100E881F0E068
:10026400EF59FE4FE081A981AE0F0E940C01798005
:100274006880229608950E94F100A2E00E940C0179
:100284000E94F100ACE00E940C010E94F100A1E088
:100294000E940C01E0E06E2E7E2E0895AA93EF9347
:1002A400FF93A8816894AA3019F0E894791430F087
:1002B4006394E0E0EA93A62DCEDF36F073948FDFEB
:1002C400C09AA8810E940C01FF91EF910C94BD018A
:1002D400BA93AA931A93A981BA81ED91A983BA8397
:1002E4001E2FE03019F0A12FD9DFF5CF1881239606
:1002F4000895AA27BB271197F1F70895AA93C198E7
:10030400A7B3A76FA7BBB8B3BF70A8810E940201AF
:10031400C19A31C0AA93C298C0989880E881E058E5
:10032400E0936301E881E054E09364010E94850353
:100334000E9485030E948503DCDFA0E2DFDFD9DFB2
:10034400A8E20E948A03A4E00E948A03A5E80E940E
:100354008A03A7B3AF70A7BBC19A0E942401E530FA
:1003640011F0E0E008C00E94F100A6E00E940C0138
:100374000E943D01E1E021960895BA93AA931A934D
:100384000A93AA81BB8112960E94F703309759F110
:10039400AA81BB8114960E94F7038F01309761F004
:1003A4000230E0E01E0798F0F80131978F01AA812E
:1003B400BB811496ED93FC93AA81BB811296ED91B7
:1003C400FD913196FE93EE933197AC81A083AA817F
:1003D400BB810E94F703FF232AF0ED91FD91319632
:1003E400FE93EE9306C0AA81BB81EFEFFFEFED937E
:1003F400FC931981088125960895BA93AA932697A8
:100404000E94040410E0AC85BD85E0E0F0E0ED93CB
:10041400FC93EA89FB893196EA8BFB8B3197E49153
:100424002E2FE03009F415C1E12FE03039F42532E4
:1004340011F411E002C00E948E030AC1E130A9F454
:10044400253219F40E948E0302C112E040E000E05C
:100454002D3211F401E0FCC02B3211F44BE2F8C050
:10046400203211F440E2F4C002C0E23039F450E02A
:1004740013E0203311F40068EBC003C0E33009F04B
:10048400E7C0203310F02A3308F007C0AAE05A9FCF
:10049400502DE22FE0535E0FDBC0E22FE33649F428
:1004A4000E949503E889F989A481AA930E949B0379
:1004B400CEC0E33741F40E9495030E94A1030E9439
:1004C40067031E2F0AC0E03761F40E9495030E945F
:1004D400A1030E9473031E2F086002600F7730E0AF
:1004E40034C0E43611F0E93611F4046002C0E53793
:1004F40031F4E4E5F0E0EE83FF8315E00CC0E83569
:1005040011F4086003C0E83709F0A1C0EEE5F0E09B
:10051400EE83FF8314E002FF14C00E9495030E943F
:10052400AB03AB85AA233AF4EA85FB850E94C80392
:10053400EA87FB874DE2403011F01F5F01C00B7F5B
:1005440004C00E9495030E94AB0300FD11C015175F
:1005540078F407FF08C002FF04C00B7F242F11505A
:1005640001C020E301C020E20E948E035150EFCF6E
:10057400312F01FF17C03030A1F003FF06C0EE8118
:10058400FF812591EE83FF8305C0AE81BF812D914C
:10059400AE83BF830E948E03503009F05150315016
:1005A400EACF4BC020E3EE81FF810E94FB03E88782
:1005B400F987EE81FF813296EE83FF83E885F98522
:1005C400AA85BB85AE17BF0750F02F5FA885B985F4
:1005D400EA85FB85EA1BFB0BEA87FB87EFCF2A330F
:1005E40028F003FF02C0295F01C0295D04FD1AC081
:1005F400213320F4A885B985119709F409C053174C
:1006040010F000FF01C013C020E207FF0BC020E37D
:10061400006102FF07C00B7F4A930E949B03503086
:1006240009F051500E948E03503009F0515031505E
:10063400A885B985129708F0B5CF00FF08C05030DF
:1006440031F05150E0E2EA930E949B03F8CF10E0AE
:10065400E0CEAC85BD850E94F7030E940B0464962E
:100664000895FF92F82E26970E9406040E94B30371
:10067400309719F4EFEFFFEF23C0DE0116960E94C6
:10068400C4038D010E94B303EE83FF83E0E0E88797
:10069400E987DE011A960E94C4030E94F703FA93C5
:1006A400EA931A930A93EFEBF1E0FA93EA93DE01EB
:1006B4001A96A3DE9F01AE81BF81E0E0EC93F901BD
:1006C4000E940D042A96FF900895BA93AA93A991C3
:1006D400B991EE27FF276D91662311F03196FBCF78
:1006E4000895BA93AA93AA27BB27E991F991059093
:1006F400002011F01196FBCFFD0108950E94CC0358
:100704000E94FF0308950E947B01A0E30C948001E2
:100714000E940C010C947B012A93AD85BE85EF8564
:10072400F88909950895E889F9893497E88BF98B54
:100734000895AD85BE85EF85F88909950895A88942
:10074400B98914960E94F703EE83FF83AE81BF81BB
:100754000895A889B98914960E94F703EA87FB874C
:100764000895DE011C960E94C4030E94F7030895B5
:10077400109639F08AEF90E00197F1F7A895119758
:10078400C9F708950024AF0DB01D0895F195E195C2
:10079400F04008956F2F660F660B762F089500249E
:1007A400112490E1AA0FBB1F001C111C0E1A1F0A72
:1007B40018F40E0E1F1E01C0A1609A9599F7FD0151
:1007C400D001089504D0EBDF0EF4E0DF0895E8943F
:1007D400F7FF02C0DBDF6894B7FF06C0A095B095B1
:1007E400119600F8039400FA0895ED91FC91119785
:1007F40008950590F491E02D08957A936A93FA93FD
:10080400EA9308955A934A933A932A931A930A932C
:1008140008955D814C813B812A8119810881089565
:00000001FF
