:0E0000000C942A000C9400000C9400000C9448
:10000E0000000C9400000C9400000C9400000C9462
:10001E0000000C9400000C9400000C9400000C9452
:10002E0000000C9400000C9400000C9400000C9442
:10003E0000000C9400000C9400000C9400000C9432
:10004E0000000C940000F894EE27ECBBF1E0FBBF2F
:10005E00EBBFE5BF8DE0A2E0BB27ED938A95E9F7F4
:10006E0080E094E0A0E6ED930197E9F7EFE5EDBFB0
:10007E00E4E0EEBFC0E6D1E00C944500EFEFEABB42
:10008E00E7BBE0E0EBBBE8BBE8B3EE0FE8BB12D09A
:10009E00EBB3EE0FEBBB0ED0E8B3E03019F4E1E0BA
:1000AE00E8BB08D0EBB3E03019F4E1E0EBBB02D0D3
:1000BE00EBCFFFCFAAE0B0E00C946500109639F0BC
:1000CE008AEF90E00197F1F7A8951197C9F7089577
:00000001FF
